{
  "contractName": "Parking",
  "abi": [
    {
      "inputs": [
        {
          "internalType": "address",
          "name": "parxosContAddr",
          "type": "address"
        }
      ],
      "stateMutability": "nonpayable",
      "type": "constructor"
    },
    {
      "anonymous": false,
      "inputs": [
        {
          "indexed": true,
          "internalType": "address",
          "name": "previousOwner",
          "type": "address"
        },
        {
          "indexed": true,
          "internalType": "address",
          "name": "newOwner",
          "type": "address"
        }
      ],
      "name": "OwnershipTransferred",
      "type": "event"
    },
    {
      "inputs": [],
      "name": "isOwner",
      "outputs": [
        {
          "internalType": "bool",
          "name": "",
          "type": "bool"
        }
      ],
      "stateMutability": "view",
      "type": "function",
      "constant": true
    },
    {
      "inputs": [],
      "name": "owner",
      "outputs": [
        {
          "internalType": "address",
          "name": "",
          "type": "address"
        }
      ],
      "stateMutability": "view",
      "type": "function",
      "constant": true
    },
    {
      "inputs": [],
      "name": "renounceOwnership",
      "outputs": [],
      "stateMutability": "nonpayable",
      "type": "function"
    },
    {
      "inputs": [
        {
          "internalType": "address",
          "name": "newOwner",
          "type": "address"
        }
      ],
      "name": "transferOwnership",
      "outputs": [],
      "stateMutability": "nonpayable",
      "type": "function"
    },
    {
      "inputs": [
        {
          "internalType": "uint256",
          "name": "_spaceId",
          "type": "uint256"
        },
        {
          "internalType": "address",
          "name": "_owner",
          "type": "address"
        }
      ],
      "name": "addOwner",
      "outputs": [
        {
          "internalType": "bool",
          "name": "success",
          "type": "bool"
        }
      ],
      "stateMutability": "nonpayable",
      "type": "function"
    },
    {
      "inputs": [
        {
          "internalType": "uint256",
          "name": "_begTimestamp",
          "type": "uint256"
        },
        {
          "internalType": "uint256",
          "name": "_endTimestamp",
          "type": "uint256"
        },
        {
          "internalType": "uint256",
          "name": "_openingHead",
          "type": "uint256"
        },
        {
          "internalType": "uint256",
          "name": "_openingTail",
          "type": "uint256"
        },
        {
          "internalType": "uint256",
          "name": "_spaceId",
          "type": "uint256"
        },
        {
          "internalType": "uint256",
          "name": "_openingId",
          "type": "uint256"
        },
        {
          "internalType": "uint256",
          "name": "_value",
          "type": "uint256"
        }
      ],
      "name": "addOpening",
      "outputs": [
        {
          "internalType": "bool",
          "name": "success",
          "type": "bool"
        }
      ],
      "stateMutability": "nonpayable",
      "type": "function"
    },
    {
      "inputs": [
        {
          "internalType": "uint256",
          "name": "_openingId",
          "type": "uint256"
        }
      ],
      "name": "buyOpening",
      "outputs": [
        {
          "internalType": "bool",
          "name": "",
          "type": "bool"
        }
      ],
      "stateMutability": "nonpayable",
      "type": "function"
    },
    {
      "inputs": [
        {
          "internalType": "uint256",
          "name": "_spaceId",
          "type": "uint256"
        }
      ],
      "name": "getSpaceOwner",
      "outputs": [
        {
          "internalType": "address",
          "name": "",
          "type": "address"
        }
      ],
      "stateMutability": "view",
      "type": "function",
      "constant": true
    }
  ],
  "bytecode": "0x608060405234801561001057600080fd5b506040516116003803806116008339818101604052602081101561003357600080fd5b8101908080519060200190929190505050600061005461013960201b60201c565b9050806000806101000a81548173ffffffffffffffffffffffffffffffffffffffff021916908373ffffffffffffffffffffffffffffffffffffffff1602179055508073ffffffffffffffffffffffffffffffffffffffff16600073ffffffffffffffffffffffffffffffffffffffff167f8be0079c531659141344cd1fd0a4f28419497f9722a3daafe3b4186f6b6457e060405160405180910390a35080600160006101000a81548173ffffffffffffffffffffffffffffffffffffffff021916908373ffffffffffffffffffffffffffffffffffffffff16021790555050610141565b600033905090565b6114b0806101506000396000f3fe608060405234801561001057600080fd5b50600436106100885760003560e01c80638da5cb5b1161005b5780638da5cb5b146101ed5780638f32d59b14610237578063938cdb1414610259578063f2fde38b1461029f57610088565b806307be39691461008d5780633b6aa356146100fb578063715018a61461017d5780638cd1bb2014610187575b600080fd5b6100b9600480360360208110156100a357600080fd5b81019080803590602001909291905050506102e3565b604051808273ffffffffffffffffffffffffffffffffffffffff1673ffffffffffffffffffffffffffffffffffffffff16815260200191505060405180910390f35b610163600480360360e081101561011157600080fd5b8101908080359060200190929190803590602001909291908035906020019092919080359060200190929190803590602001909291908035906020019092919080359060200190929190505050610320565b604051808215151515815260200191505060405180910390f35b610185610ac2565b005b6101d36004803603604081101561019d57600080fd5b8101908080359060200190929190803573ffffffffffffffffffffffffffffffffffffffff169060200190929190505050610bfb565b604051808215151515815260200191505060405180910390f35b6101f5610cd3565b604051808273ffffffffffffffffffffffffffffffffffffffff1673ffffffffffffffffffffffffffffffffffffffff16815260200191505060405180910390f35b61023f610cfc565b604051808215151515815260200191505060405180910390f35b6102856004803603602081101561026f57600080fd5b8101908080359060200190929190505050610d5a565b604051808215151515815260200191505060405180910390f35b6102e1600480360360208110156102b557600080fd5b81019080803573ffffffffffffffffffffffffffffffffffffffff1690602001909291905050506111d4565b005b60006004600083815260200190815260200160002060009054906101000a900473ffffffffffffffffffffffffffffffffffffffff169050919050565b60003373ffffffffffffffffffffffffffffffffffffffff166004600086815260200190815260200160002060009054906101000a900473ffffffffffffffffffffffffffffffffffffffff1673ffffffffffffffffffffffffffffffffffffffff16146103f6576040517f08c379a000000000000000000000000000000000000000000000000000000000815260040180806020018281038252601d8152602001807f5370616365206e6f74206f776e6564206279206d73672e73656e64657200000081525060200191505060405180910390fd5b60006002600086815260200190815260200160002060006002811061041757fe5b01541480156104265750600086145b80156104325750600085145b156104e7576040518060400160405280848152602001848152506002600086815260200190815260200160002090600261046d9291906113a6565b50604051806040016040528089815260200188815250600360008581526020019081526020016000206001019060026104a79291906113a6565b5083600360008581526020019081526020016000206000018190555081600360008581526020019081526020016000206005018190555060019050610ab7565b600086141561065b57866003600087815260200190815260200160002060010160006002811061051357fe5b015411610588576040517f08c379a00000000000000000000000000000000000000000000000000000000081526004018080602001828103825260208152602001807f4f70656e696e67206973206e6f74206265666f726520616c6c206f746865727381525060200191505060405180910390fd5b82600260008681526020019081526020016000206000600281106105a857fe5b0181905550604051806040016040528089815260200188815250600360008581526020019081526020016000206001019060026105e69291906113a6565b50846003600085815260200190815260200160002060030160016002811061060a57fe5b0181905550826003600087815260200190815260200160002060030160006002811061063257fe5b018190555081600360008581526020019081526020016000206005018190555060019050610ab7565b60008514156107ea57876003600088815260200190815260200160002060010160016002811061068757fe5b0154106106fc576040517f08c379a00000000000000000000000000000000000000000000000000000000081526004018080602001828103825260208152602001807f4f70656e696e67206973206e6f74206265666f726520616c6c206f746865727381525060200191505060405180910390fd5b826002600086815260200190815260200160002060016002811061071c57fe5b01819055506040518060400160405280898152602001888152506003600085815260200190815260200160002060010190600261075a9291906113a6565b50856003600085815260200190815260200160002060030160006002811061077e57fe5b018190555083600360008581526020019081526020016000206000018190555082600360008881526020019081526020016000206003016001600281106107c157fe5b018190555081600360008581526020019081526020016000206005018190555060019050610ab7565b6003600086815260200190815260200160002060030160006002811061080c57fe5b01546003600088815260200190815260200160002060030160016002811061083057fe5b015414610888576040517f08c379a00000000000000000000000000000000000000000000000000000000081526004018080602001828103825260248152602001806114326024913960400191505060405180910390fd5b87600360008881526020019081526020016000206001016001600281106108ab57fe5b015410610920576040517f08c379a00000000000000000000000000000000000000000000000000000000081526004018080602001828103825260198152602001807f4f70656e696e67206973206e6f7420616674657220686561640000000000000081525060200191505060405180910390fd5b866003600087815260200190815260200160002060010160006002811061094357fe5b0154116109b8576040517f08c379a000000000000000000000000000000000000000000000000000000000815260040180806020018281038252601a8152602001807f4f70656e696e67206973206e6f74206265666f7265207461696c00000000000081525060200191505060405180910390fd5b604051806040016040528089815260200188815250600360008581526020019081526020016000206001019060026109f19291906113a6565b5060405180604001604052808781526020018681525060036000858152602001908152602001600020600301906002610a2b9291906113a6565b508360036000858152602001908152602001600020600001819055508260036000888152602001908152602001600020600301600160028110610a6a57fe5b01819055508260036000878152602001908152602001600020600301600060028110610a9257fe5b0181905550816003600085815260200190815260200160002060050181905550600190505b979650505050505050565b610aca610cfc565b610b3c576040517f08c379a00000000000000000000000000000000000000000000000000000000081526004018080602001828103825260208152602001807f4f776e61626c653a2063616c6c6572206973206e6f7420746865206f776e657281525060200191505060405180910390fd5b600073ffffffffffffffffffffffffffffffffffffffff166000809054906101000a900473ffffffffffffffffffffffffffffffffffffffff1673ffffffffffffffffffffffffffffffffffffffff167f8be0079c531659141344cd1fd0a4f28419497f9722a3daafe3b4186f6b6457e060405160405180910390a360008060006101000a81548173ffffffffffffffffffffffffffffffffffffffff021916908373ffffffffffffffffffffffffffffffffffffffff160217905550565b6000610c05610cfc565b610c77576040517f08c379a00000000000000000000000000000000000000000000000000000000081526004018080602001828103825260208152602001807f4f776e61626c653a2063616c6c6572206973206e6f7420746865206f776e657281525060200191505060405180910390fd5b816004600085815260200190815260200160002060006101000a81548173ffffffffffffffffffffffffffffffffffffffff021916908373ffffffffffffffffffffffffffffffffffffffff1602179055506001905092915050565b60008060009054906101000a900473ffffffffffffffffffffffffffffffffffffffff16905090565b60008060009054906101000a900473ffffffffffffffffffffffffffffffffffffffff1673ffffffffffffffffffffffffffffffffffffffff16610d3e61125a565b73ffffffffffffffffffffffffffffffffffffffff1614905090565b60006003600083815260200190815260200160002060050154600160009054906101000a900473ffffffffffffffffffffffffffffffffffffffff1673ffffffffffffffffffffffffffffffffffffffff166370a08231336040518263ffffffff1660e01b8152600401808273ffffffffffffffffffffffffffffffffffffffff1673ffffffffffffffffffffffffffffffffffffffff168152602001915050602060405180830381600087803b158015610e1457600080fd5b505af1158015610e28573d6000803e3d6000fd5b505050506040513d6020811015610e3e57600080fd5b81019080805190602001909291905050501015610ea6576040517f08c379a00000000000000000000000000000000000000000000000000000000081526004018080602001828103825260258152602001806114566025913960400191505060405180910390fd5b6003600083815260200190815260200160002060050154600160009054906101000a900473ffffffffffffffffffffffffffffffffffffffff1673ffffffffffffffffffffffffffffffffffffffff1663dd62ed3e33306040518363ffffffff1660e01b8152600401808373ffffffffffffffffffffffffffffffffffffffff1673ffffffffffffffffffffffffffffffffffffffff1681526020018273ffffffffffffffffffffffffffffffffffffffff1673ffffffffffffffffffffffffffffffffffffffff16815260200192505050602060405180830381600087803b158015610f9257600080fd5b505af1158015610fa6573d6000803e3d6000fd5b505050506040513d6020811015610fbc57600080fd5b81019080805190602001909291905050501015611041576040517f08c379a000000000000000000000000000000000000000000000000000000000815260040180806020018281038252601f8152602001807f73656e64657220686173206e6f7420656e6f75676820616c6c6f77616e63650081525060200191505060405180910390fd5b60006003600084815260200190815260200160002060050154905060006003600085815260200190815260200160002060000154905060006004600083815260200190815260200160002060009054906101000a900473ffffffffffffffffffffffffffffffffffffffff169050600160009054906101000a900473ffffffffffffffffffffffffffffffffffffffff1673ffffffffffffffffffffffffffffffffffffffff166323b872dd3383866040518463ffffffff1660e01b8152600401808473ffffffffffffffffffffffffffffffffffffffff1673ffffffffffffffffffffffffffffffffffffffff1681526020018373ffffffffffffffffffffffffffffffffffffffff1673ffffffffffffffffffffffffffffffffffffffff1681526020018281526020019350505050602060405180830381600087803b15801561118c57600080fd5b505af11580156111a0573d6000803e3d6000fd5b505050506040513d60208110156111b657600080fd5b81019080805190602001909291905050505060019350505050919050565b6111dc610cfc565b61124e576040517f08c379a00000000000000000000000000000000000000000000000000000000081526004018080602001828103825260208152602001807f4f776e61626c653a2063616c6c6572206973206e6f7420746865206f776e657281525060200191505060405180910390fd5b61125781611262565b50565b600033905090565b600073ffffffffffffffffffffffffffffffffffffffff168173ffffffffffffffffffffffffffffffffffffffff1614156112e8576040517f08c379a000000000000000000000000000000000000000000000000000000000815260040180806020018281038252602681526020018061140c6026913960400191505060405180910390fd5b8073ffffffffffffffffffffffffffffffffffffffff166000809054906101000a900473ffffffffffffffffffffffffffffffffffffffff1673ffffffffffffffffffffffffffffffffffffffff167f8be0079c531659141344cd1fd0a4f28419497f9722a3daafe3b4186f6b6457e060405160405180910390a3806000806101000a81548173ffffffffffffffffffffffffffffffffffffffff021916908373ffffffffffffffffffffffffffffffffffffffff16021790555050565b82600281019282156113d5579160200282015b828111156113d45782518255916020019190600101906113b9565b5b5090506113e291906113e6565b5090565b61140891905b808211156114045760008160009055506001016113ec565b5090565b9056fe4f776e61626c653a206e6577206f776e657220697320746865207a65726f20616464726573734f70656e696e67206973206e6f74206265747765656e206865616420616e64207461696c6e6f7420656e6f75676820746f6b656e7320696e2073656e64657227732062616c616e6365a26469706673582212206733528ad0a465dbdf02c279359a669908a1d01b90408451f76e6a599001fa3d64736f6c63430006030033",
  "source": "pragma solidity ^0.6.3;\n\n// import \"openzeppelin-solidity/contracts/ownership/Ownable.sol\";\nimport \"../node_modules/openzeppelin-solidity/contracts/ownership/Ownable.sol\";\n\ninterface ERC20Token {\n  function allowance(address, address) external returns (uint256);\n  function balanceOf(address) external returns (uint256);\n  function transferFrom(address, address, uint) external returns (bool);\n}\n\ncontract Parking is Ownable {\n\n    ERC20Token pc; // Parxos contract (pc)\n    \n    constructor(address parxosContAddr) public {\n        pc = ERC20Token(parxosContAddr);\n    }\n\n    struct openingStruct {\n        uint256 spaceId; // Space ID of Opening\n        uint256[2] timestamps; // [beginTsHash, endTsHash]\n        uint256[2] spaceLinks; // [headId, tailId] Linked List of space openings head and tail (0 if head and/or tail)\n        uint256 value; // cost of the opening\n    }\n\n    mapping (uint256 => uint256[2]) space; // spaceId (uint256) to Opening Linked List [head, tail]\n    mapping (uint256 => openingStruct) opening; // opening (uint256) to opening struct\n    mapping (uint256 => address) spaceOwner; // owner of parking space\n\n    function addOwner(uint256 _spaceId, address _owner) public onlyOwner returns(bool success) {\n        spaceOwner[_spaceId] = _owner;\n        return true;\n    }\n\n    function addOpening(uint256 _begTimestamp, \n                        uint256 _endTimestamp,\n                        uint256 _openingHead,\n                        uint256 _openingTail,\n                        uint256 _spaceId,\n                        uint256 _openingId,\n                        uint256 _value\n                        ) public returns(bool success) {\n        \n        require(spaceOwner[_spaceId] == msg.sender, 'Space not owned by msg.sender');\n        if(space[_spaceId][0] == 0 && _openingHead == uint256(0) && _openingTail == uint256(0)) {\n            space[_spaceId] = [_openingId, _openingId];\n            opening[_openingId].timestamps = [_begTimestamp, _endTimestamp];\n            opening[_openingId].spaceId = _spaceId;\n            opening[_openingId].value = _value;\n            return true;\n        }\n        \n        if(_openingHead == uint256(0)) {\n            require(opening[_openingTail].timestamps[0] > _endTimestamp, 'Opening is not before all others');\n            space[_spaceId][0] = _openingId;\n            opening[_openingId].timestamps = [_begTimestamp, _endTimestamp];\n            opening[_openingId].spaceLinks[1] = _openingTail;\n            opening[_openingTail].spaceLinks[0] = _openingId;\n            opening[_openingId].value = _value;\n            return true;\n        }\n\n        if(_openingTail == uint256(0)) {\n            require(opening[_openingHead].timestamps[1] < _begTimestamp, 'Opening is not before all others');\n            space[_spaceId][1] = _openingId;\n            opening[_openingId].timestamps = [_begTimestamp, _endTimestamp];\n            opening[_openingId].spaceLinks[0] = _openingHead;\n            opening[_openingId].spaceId = _spaceId;\n            opening[_openingHead].spaceLinks[1] = _openingId;\n            opening[_openingId].value = _value;\n            return true;\n        }\n\n        require(opening[_openingHead].spaceLinks[1] == opening[_openingTail].spaceLinks[0], 'Opening is not between head and tail');\n        require(opening[_openingHead].timestamps[1] < _begTimestamp, 'Opening is not after head');\n        require(opening[_openingTail].timestamps[0] > _endTimestamp, 'Opening is not before tail');\n        opening[_openingId].timestamps = [_begTimestamp, _endTimestamp];\n        opening[_openingId].spaceLinks = [_openingHead, _openingTail];\n        opening[_openingId].spaceId = _spaceId;\n        opening[_openingHead].spaceLinks[1] = _openingId;\n        opening[_openingTail].spaceLinks[0] = _openingId;\n        opening[_openingId].value = _value;\n        return true;\n    }\n\n    function buyOpening(uint256 _openingId) public returns(bool) {\n        require(pc.balanceOf(msg.sender) >= opening[_openingId].value, \"not enough tokens in sender's balance\");\n        require(pc.allowance(msg.sender, address(this)) >= opening[_openingId].value, \"sender has not enough allowance\");\n        uint256 value = opening[_openingId].value;\n        uint256 spaceId = opening[_openingId].spaceId;\n        address openingOwner = spaceOwner[spaceId];\n        pc.transferFrom(msg.sender, openingOwner, value);\n        return true;\n    }\n\n    function getSpaceOwner(uint256 _spaceId) public view returns(address) {\n        return spaceOwner[_spaceId];\n    }\n}",
  "sourcePath": "/home/dninja/Projects/github/hackhouston-truffle/contracts/Parking.sol",
  "compiler": {
    "name": "solc",
    "version": "0.6.3+commit.8dda9521.Emscripten.clang"
  },
  "schemaVersion": "3.0.23",
  "updatedAt": "2020-03-08T00:04:10.542Z",
  "networkType": "ethereum",
  "devdoc": {
    "methods": {
      "isOwner()": {
        "details": "Returns true if the caller is the current owner."
      },
      "owner()": {
        "details": "Returns the address of the current owner."
      },
      "renounceOwnership()": {
        "details": "Leaves the contract without owner. It will not be possible to call `onlyOwner` functions anymore. Can only be called by the current owner.     * NOTE: Renouncing ownership will leave the contract without an owner, thereby removing any functionality that is only available to the owner."
      },
      "transferOwnership(address)": {
        "details": "Transfers ownership of the contract to a new account (`newOwner`). Can only be called by the current owner."
      }
    }
  },
  "userdoc": {
    "methods": {}
  }
}